Microchip MPLAB XC8 Compiler V1.30 ()

Linker command line:

--edf=/Applications/microchip/xc8/v1.30/dat/en_msgs.txt -cs \
  -h+dist/default/production/ccp-tone-pad.production.sym \
  --cmf=dist/default/production/ccp-tone-pad.production.cmf -z -Q16F887 \
  -o/tmp/cgtjl9WjZ -Mdist/default/production/ccp-tone-pad.production.map \
  -E1 -ver=XC8 -ASTACK=0110h-016fh -pstack=STACK -ACONST=00h-0FFhx32 \
  -ACODE=00h-07FFhx4 -ASTRCODE=00h-01FFFh -AENTRY=00h-0FFhx32 \
  -ASTRING=00h-0FFhx32 -ACOMMON=070h-07Fh -ABANK0=020h-06Fh \
  -ABANK1=0A0h-0EFh -ABANK2=0110h-016Fh -ABANK3=0190h-01EFh \
  -ARAM=020h-06Fh,0A0h-0EFh,0110h-016Fh,0190h-01EFh \
  -AABS1=020h-07Fh,0A0h-0EFh,0110h-016Fh,0190h-01EFh -ASFR0=00h-01Fh \
  -ASFR1=080h-09Fh -ASFR2=0100h-010Fh -ASFR3=0180h-018Fh \
  -preset_vec=00h,intentry=04h,init,end_init -ppowerup=CODE -pcinit=CODE \
  -pfunctab=CODE -ACONFIG=02007h-02008h -pconfig=CONFIG -DCONFIG=2 \
  -AIDLOC=02000h-02003h -pidloc=IDLOC -DIDLOC=2 -AEEDATA=00h-0FFh/02100h \
  -peeprom_data=EEDATA -DEEDATA=2 -DCODE=2 -DSTRCODE=2 -DSTRING=2 -DCONST=2 \
  -DENTRY=2 -k /tmp/cgtOv2248.obj \
  dist/default/production/ccp-tone-pad.production.obj 

Object code version is 3.11

Machine type is 16F887



                Name                               Link     Load   Length Selector   Space Scale
/tmp/cgtOv2248.obj
                end_init                             12       12        3        8       0
                reset_vec                             0        0        3        0       0
                config                             2007     2007        2     400E       0
dist/default/production/ccp-tone-pad.production.obj
                cinit                                15       15       31        8       0
                intentry                              4        4        E        8       0
                text11                              766      766       1D        8       0
                text10                              783      783       1C        8       0
                text9                               662      662       6A        8       0
                text8                               723      723       25        8       0
                text7                               29E      29E      109        8       0
                text6                               47A      47A       B8        8       0
                text5                               3A7      3A7       D3        8       0
                text4                               5D4      5D4       8E        8       0
                text3                               748      748       1E        8       0
                text2                                46       46      258        8       0
                text1                               7B0      7B0        D        8       0
                maintext                            532      532       A2        8       0
                cstackBANK0                          20       20       4E       20       1
                cstackCOMMON                         70       70        6       70       1
                cstackBANK1                          DA       DA        9       A0       1
                inittext                            79F      79F       11        8       0
                dataBANK3                           190      190       2A      190       1
                dataBANK1                            A0       A0       2D       A0       1
                bssBANK1                             CD       CD        D       A0       1
                bssCOMMON                            76       76        4       70       1
                idataBANK3                          6F9      6F9       2A        8       0
                idataBANK1                          6CC      6CC       2D        8       0

TOTAL           Name                               Link     Load   Length     Space
        CLASS   STACK          

        CLASS   CONST          

        CLASS   CODE           
                end_init                             12       12        3         0
                cinit                                15       15       31         0
                intentry                              4        4        E         0
                reset_vec                             0        0        3         0
                text11                              766      766       1D         0
                text10                              783      783       1C         0
                text9                               662      662       6A         0
                text8                               723      723       25         0
                text7                               29E      29E      109         0
                text6                               47A      47A       B8         0
                text5                               3A7      3A7       D3         0
                text4                               5D4      5D4       8E         0
                text3                               748      748       1E         0
                text2                                46       46      258         0
                text1                               7B0      7B0        D         0
                maintext                            532      532       A2         0
                inittext                            79F      79F       11         0
                idataBANK3                          6F9      6F9       2A         0
                idataBANK1                          6CC      6CC       2D         0

        CLASS   STRCODE        

        CLASS   ENTRY          

        CLASS   STRING         

        CLASS   COMMON         
                cstackCOMMON                         70       70        6         1
                bssCOMMON                            76       76        4         1

        CLASS   BANK0          
                cstackBANK0                          20       20       4E         1

        CLASS   BANK1          
                cstackBANK1                          DA       DA        9         1
                dataBANK1                            A0       A0       2D         1
                bssBANK1                             CD       CD        D         1

        CLASS   BANK2          

        CLASS   BANK3          
                dataBANK3                           190      190       2A         1

        CLASS   RAM            

        CLASS   ABS1           
                abs_s1                               7E       7E        2         1

        CLASS   SFR0           

        CLASS   SFR1           

        CLASS   SFR2           

        CLASS   SFR3           

        CLASS   CONFIG         
                config                             2007     2007        2         0

        CLASS   IDLOC          

        CLASS   EEDATA         



SEGMENTS        Name                           Load    Length   Top    Selector   Space  Class     Delta

                reset_vec                      000000  000003  000003         0       0  CODE        2
                intentry                       000004  0007B9  0007BD         8       0  CODE        2
                cstackBANK0                    000020  00004E  00006E        20       1  BANK0       1
                cstackCOMMON                   000070  00000A  00007A        70       1  COMMON      1
                dataBANK1                      0000A0  000043  0000E3        A0       1  BANK1       1
                dataBANK3                      000190  00002A  0001BA       190       1  BANK3       1
                config                         002007  000002  002009      400E       0  CONFIG      2


UNUSED ADDRESS RANGES

        Name                Unused          Largest block    Delta
        BANK0            006E-006F              2           1
        BANK1            00E3-00EF              D           1
        BANK2            0110-016F             60           1
        BANK3            01BA-01EF             36           1
        CODE             0003-0003              1           2
                         07BD-1FFF            800
        COMMON           007A-007D              4           1
        CONST            0003-0003              1           2
                         07BD-1FFF            100
        EEDATA           2100-21FF            100           2
        ENTRY            0003-0003              1           2
                         07BD-1FFF            100
        IDLOC            2000-2003              4           2
        RAM              006E-006F              2           1
                         00E3-00EF              D
                         0110-016F             60
                         01BA-01EF             36
        SFR0             0000-001F             20           1
        SFR1             0080-009F             20           1
        SFR2             0100-010F             10           1
        SFR3             0180-018F             10           1
        STACK            0110-016F             60           1
        STRCODE          0003-0003              1           2
                         07BD-1FFF           1843
        STRING           0003-0003              1           2
                         07BD-1FFF            100

                                  Symbol Table

?___awtoft               cstackBANK0  0028
?___ftadd                cstackBANK0  004C
?___ftdiv                cstackBANK0  003C
?___ftmul                cstackBANK0  002C
?___ftpack               cstackBANK0  0020
?___fttol                cstackBANK0  0059
_ADCON0                  (abs)        001F
_ANSEL                   (abs)        0188
_ANSELH                  (abs)        0189
_CCP1CON                 (abs)        0017
_CCPR1L                  (abs)        0015
_INTCONbits              (abs)        000B
_PIE1bits                (abs)        008C
_PIR1bits                (abs)        000C
_PORTA                   (abs)        0005
_PORTB                   (abs)        0006
_PORTBbits               (abs)        0006
_PORTC                   (abs)        0007
_PORTCbits               (abs)        0007
_PORTD                   (abs)        0008
_PORTDbits               (abs)        0008
_PORTE                   (abs)        0009
_PORTEbits               (abs)        0009
_PR2                     (abs)        0092
_T2CON                   (abs)        0012
_TRISA                   (abs)        0085
_TRISB                   (abs)        0086
_TRISC                   (abs)        0087
_TRISCbits               (abs)        0087
_TRISD                   (abs)        0088
_TRISE                   (abs)        0089
__CFG_BOR4V$BOR40V       (abs)        0000
__CFG_BOREN$OFF          (abs)        0000
__CFG_CP$OFF             (abs)        0000
__CFG_CPD$OFF            (abs)        0000
__CFG_FCMEN$OFF          (abs)        0000
__CFG_FOSC$XT            (abs)        0000
__CFG_IESO$OFF           (abs)        0000
__CFG_LVP$OFF            (abs)        0000
__CFG_MCLRE$ON           (abs)        0000
__CFG_PWRTE$OFF          (abs)        0000
__CFG_WDTE$OFF           (abs)        0000
__CFG_WRT$OFF            (abs)        0000
__Habs1                  abs1         0000
__Hbank0                 bank0        0000
__Hbank1                 bank1        0000
__Hbank2                 bank2        0000
__Hbank3                 bank3        0000
__HbssBANK1              bssBANK1     0000
__HbssCOMMON             bssCOMMON    0000
__Hcinit                 cinit        0046
__Hclrtext               clrtext      0000
__Hcode                  code         0000
__Hcommon                common       0000
__Hconfig                config       2009
__HcstackBANK0           cstackBANK0  0000
__HcstackBANK1           cstackBANK1  0000
__HcstackCOMMON          cstackCOMMON 0000
__HdataBANK1             dataBANK1    0000
__HdataBANK3             dataBANK3    0000
__Heeprom_data           eeprom_data  0000
__Hend_init              end_init     0015
__Hfunctab               functab      0000
__HidataBANK1            idataBANK1   0000
__HidataBANK3            idataBANK3   0000
__Hidloc                 idloc        0000
__Hinit                  init         0012
__Hinittext              inittext     0000
__Hintentry              intentry     0012
__Hmaintext              maintext     0000
__Hpowerup               powerup      0000
__Hram                   ram          0000
__Hreset_vec             reset_vec    0003
__Hsfr0                  sfr0         0000
__Hsfr1                  sfr1         0000
__Hsfr2                  sfr2         0000
__Hsfr3                  sfr3         0000
__Hstack                 stack        0000
__Hstrings               strings      0000
__Htext                  text         0000
__Labs1                  abs1         0000
__Lbank0                 bank0        0000
__Lbank1                 bank1        0000
__Lbank2                 bank2        0000
__Lbank3                 bank3        0000
__LbssBANK1              bssBANK1     0000
__LbssCOMMON             bssCOMMON    0000
__Lcinit                 cinit        0015
__Lclrtext               clrtext      0000
__Lcode                  code         0000
__Lcommon                common       0000
__Lconfig                config       2007
__LcstackBANK0           cstackBANK0  0000
__LcstackBANK1           cstackBANK1  0000
__LcstackCOMMON          cstackCOMMON 0000
__LdataBANK1             dataBANK1    0000
__LdataBANK3             dataBANK3    0000
__Leeprom_data           eeprom_data  0000
__Lend_init              end_init     0012
__Lfunctab               functab      0000
__LidataBANK1            idataBANK1   0000
__LidataBANK3            idataBANK3   0000
__Lidloc                 idloc        0000
__Linit                  init         0012
__Linittext              inittext     0000
__Lintentry              intentry     0004
__Lmaintext              maintext     0000
__Lpowerup               powerup      0000
__Lram                   ram          0000
__Lreset_vec             reset_vec    0000
__Lsfr0                  sfr0         0000
__Lsfr1                  sfr1         0000
__Lsfr2                  sfr2         0000
__Lsfr3                  sfr3         0000
__Lstack                 stack        0000
__Lstrings               strings      0000
__Ltext                  text         0000
__S0                     (abs)        2009
__S1                     (abs)        01BA
__S2                     (abs)        0000
__S3                     (abs)        0000
___awtoft                text8        0723
___awtoft@c              cstackBANK0  0028
___awtoft@sign           cstackBANK0  002B
___ftadd                 text7        029E
___ftadd@exp1            cstackBANK0  0058
___ftadd@exp2            cstackBANK0  0057
___ftadd@f1              cstackBANK0  004C
___ftadd@f2              cstackBANK0  004F
___ftadd@sign            cstackBANK0  0056
___ftdiv                 text6        047A
___ftdiv@cntr            cstackBANK0  0046
___ftdiv@exp             cstackBANK0  004A
___ftdiv@f1              cstackBANK0  003F
___ftdiv@f2              cstackBANK0  003C
___ftdiv@f3              cstackBANK0  0047
___ftdiv@sign            cstackBANK0  004B
___ftmul                 text5        03A7
___ftmul@cntr            cstackBANK0  003A
___ftmul@exp             cstackBANK0  0036
___ftmul@f1              cstackBANK0  002C
___ftmul@f2              cstackBANK0  002F
___ftmul@f3_as_product   cstackBANK0  0037
___ftmul@sign            cstackBANK0  003B
___ftpack                text9        0662
___ftpack@arg            cstackBANK0  0020
___ftpack@exp            cstackBANK0  0023
___ftpack@sign           cstackBANK0  0024
___fttol                 text4        05D4
___fttol@exp1            cstackBANK0  0066
___fttol@f1              cstackBANK0  0059
___fttol@lval            cstackBANK0  0062
___fttol@sign1           cstackBANK0  0061
___int_sp                stack        0000
___latbits               (abs)        0002
___sp                    stack        0000
__end_of___awtoft        text8        0748
__end_of___ftadd         text7        03A7
__end_of___ftdiv         text6        0532
__end_of___ftmul         text5        047A
__end_of___ftpack        text9        06CC
__end_of___fttol         text4        0662
__end_of__initialization cinit        0042
__end_of_config_board    text10       079F
__end_of_isr             text11       0783
__end_of_main            maintext     05D4
__end_of_play_tone       text2        029E
__end_of_set_timer2      text3        0766
__end_of_unset_pwm       text1        07BD
__initialization         cinit        0015
__pbssBANK1              bssBANK1     00CD
__pbssCOMMON             bssCOMMON    0076
__pcstackBANK0           cstackBANK0  0020
__pcstackBANK1           cstackBANK1  00DA
__pcstackCOMMON          cstackCOMMON 0070
__pdataBANK1             dataBANK1    00A0
__pdataBANK3             dataBANK3    0190
__pidataBANK1            idataBANK1   06CC
__pidataBANK3            idataBANK3   06F9
__pintentry              intentry     0004
__pmaintext              maintext     0532
__ptext1                 text1        07B0
__ptext10                text10       0783
__ptext11                text11       0766
__ptext2                 text2        0046
__ptext3                 text3        0748
__ptext4                 text4        05D4
__ptext5                 text5        03A7
__ptext6                 text6        047A
__ptext7                 text7        029E
__ptext8                 text8        0723
__ptext9                 text9        0662
__size_of___awtoft       (abs)        0000
__size_of___ftadd        (abs)        0000
__size_of___ftdiv        (abs)        0000
__size_of___ftmul        (abs)        0000
__size_of___ftpack       (abs)        0000
__size_of___fttol        (abs)        0000
__size_of_config_board   (abs)        0000
__size_of_isr            (abs)        0000
__size_of_main           (abs)        0000
__size_of_play_tone      (abs)        0000
__size_of_set_timer2     (abs)        0000
__size_of_unset_pwm      (abs)        0000
_config_board            text10       0783
_dutycycle               bssCOMMON    0076
_isr                     text11       0766
_main                    maintext     0532
_maxdutycycle            bssBANK1     00D3
_oscfreq                 dataBANK1    00CA
_oscperiod               bssBANK1     00CD
_play_tone               text2        0046
_play_tone$727           cstackBANK1  00DA
_pr2value                bssCOMMON    0078
_pwmfreq                 bssBANK1     00D7
_pwmperiod               bssBANK1     00D0
_set_timer2              text3        0748
_started                 bssBANK1     00D5
_unset_pwm               text1        07B0
btemp                    (abs)        007E
end_of_initialization    cinit        0042
init_fetch0              inittext     079F
init_ram0                inittext     07A3
interrupt_function       intentry     0004
intlevel0                functab      0000
intlevel1                functab      0000
intlevel2                functab      0000
intlevel3                functab      0000
intlevel4                functab      0000
intlevel5                functab      0000
ltemp                    (abs)        007E
ltemp0                   (abs)        007E
ltemp1                   (abs)        0082
ltemp2                   (abs)        0086
ltemp3                   (abs)        0080
play_tone@dc             cstackBANK0  006A
play_tone@freq           cstackBANK0  0067
play_tone@i              cstackBANK1  00DD
play_twinkle_star@F1872  dataBANK1    00A0
play_twinkle_star@F1874  dataBANK3    0190
reset_vec                reset_vec    0000
saved_w                  (abs)        007E
set_timer2@prsc          cstackCOMMON 0074
stackhi                  (abs)        0000
stacklo                  (abs)        0000
start                    init         0012
start_initialization     cinit        0015
ttemp                    (abs)        007E
ttemp0                   (abs)        007E
ttemp1                   (abs)        0081
ttemp2                   (abs)        0084
ttemp3                   (abs)        0087
ttemp4                   (abs)        007F
wtemp                    (abs)        007E
wtemp0                   (abs)        007E
wtemp1                   (abs)        0080
wtemp2                   (abs)        0082
wtemp3                   (abs)        0084
wtemp4                   (abs)        0086
wtemp5                   (abs)        0088
wtemp6                   (abs)        007F


FUNCTION INFORMATION:

 *************** function _main *****************
 Defined at:
		line 39 in file "main.c"
 Parameters:    Size  Location     Type
  argc            2    5[BANK1 ] int 
  argv            2    7[BANK1 ] PTR PTR unsigned char 
 Auto vars:     Size  Location     Type
		None
 Return value:  Size  Location     Type
                  2    5[BANK1 ] int 
 Registers used:
		wreg, status,2, status,0, btemp+1, pclath, cstack
 Tracked objects:
		On entry : 
		On exit  : 
		Unchanged: 
 Data sizes:     COMMON   BANK0   BANK1   BANK3   BANK2
      Params:         0       0       4       0       0
      Locals:         0       0       0       0       0
      Temps:          0       0       0       0       0
      Totals:         0       0       4       0       0
Total ram usage:        4 bytes
 Hardware stack levels required when called:    4
 This function calls:
		_config_board
		_play_tone
		_unset_pwm
 This function is called by:
		Startup code after reset
 This function uses a non-reentrant model


 *************** function _unset_pwm *****************
 Defined at:
		line 97 in file "main.c"
 Parameters:    Size  Location     Type
		None
 Auto vars:     Size  Location     Type
		None
 Return value:  Size  Location     Type
		None               void
 Registers used:
		status,2
 Tracked objects:
		On entry : 
		On exit  : 
		Unchanged: 
 Data sizes:     COMMON   BANK0   BANK1   BANK3   BANK2
      Params:         0       0       0       0       0
      Locals:         0       0       0       0       0
      Temps:          0       0       0       0       0
      Totals:         0       0       0       0       0
Total ram usage:        0 bytes
 Hardware stack levels used:    1
 Hardware stack levels required when called:    1
 This function calls:
		Nothing
 This function is called by:
		_main
		_play_twinkle_star
 This function uses a non-reentrant model


 *************** function _play_tone *****************
 Defined at:
		line 106 in file "main.c"
 Parameters:    Size  Location     Type
  freq            3   71[BANK0 ] float 
  dc              2   74[BANK0 ] int 
 Auto vars:     Size  Location     Type
  i               2    3[BANK1 ] int 
 Return value:  Size  Location     Type
		None               void
 Registers used:
		wreg, status,2, status,0, btemp+1, pclath, cstack
 Tracked objects:
		On entry : 
		On exit  : 
		Unchanged: 
 Data sizes:     COMMON   BANK0   BANK1   BANK3   BANK2
      Params:         0       5       0       0       0
      Locals:         0       0       5       0       0
      Temps:          0       2       0       0       0
      Totals:         0       7       5       0       0
Total ram usage:       12 bytes
 Hardware stack levels used:    1
 Hardware stack levels required when called:    3
 This function calls:
		___awtoft
		___ftadd
		___ftdiv
		___ftmul
		___fttol
		_set_timer2
 This function is called by:
		_main
		_play_twinkle_star
 This function uses a non-reentrant model


 *************** function _set_timer2 *****************
 Defined at:
		line 137 in file "main.c"
 Parameters:    Size  Location     Type
  prsc            2    4[COMMON] int 
 Auto vars:     Size  Location     Type
		None
 Return value:  Size  Location     Type
		None               void
 Registers used:
		wreg
 Tracked objects:
		On entry : 
		On exit  : 
		Unchanged: 
 Data sizes:     COMMON   BANK0   BANK1   BANK3   BANK2
      Params:         2       0       0       0       0
      Locals:         0       0       0       0       0
      Temps:          0       0       0       0       0
      Totals:         2       0       0       0       0
Total ram usage:        2 bytes
 Hardware stack levels used:    1
 Hardware stack levels required when called:    1
 This function calls:
		Nothing
 This function is called by:
		_play_tone
 This function uses a non-reentrant model


 *************** function ___fttol *****************
 Defined at:
		line 44 in file "/Applications/microchip/xc8/v1.30/sources/common/fttol.c"
 Parameters:    Size  Location     Type
  f1              3   57[BANK0 ] float 
 Auto vars:     Size  Location     Type
  lval            4   66[BANK0 ] unsigned long 
  exp1            1   70[BANK0 ] unsigned char 
  sign1           1   65[BANK0 ] unsigned char 
 Return value:  Size  Location     Type
                  4   57[BANK0 ] long 
 Registers used:
		wreg, status,2, status,0
 Tracked objects:
		On entry : 
		On exit  : 
		Unchanged: 
 Data sizes:     COMMON   BANK0   BANK1   BANK3   BANK2
      Params:         0       4       0       0       0
      Locals:         0       6       0       0       0
      Temps:          0       4       0       0       0
      Totals:         0      14       0       0       0
Total ram usage:       14 bytes
 Hardware stack levels used:    1
 Hardware stack levels required when called:    1
 This function calls:
		Nothing
 This function is called by:
		_play_tone
		_delay
 This function uses a non-reentrant model


 *************** function ___ftmul *****************
 Defined at:
		line 51 in file "/Applications/microchip/xc8/v1.30/sources/common/ftmul.c"
 Parameters:    Size  Location     Type
  f1              3   12[BANK0 ] float 
  f2              3   15[BANK0 ] float 
 Auto vars:     Size  Location     Type
  f3_as_produc    3   23[BANK0 ] unsigned um
  sign            1   27[BANK0 ] unsigned char 
  cntr            1   26[BANK0 ] unsigned char 
  exp             1   22[BANK0 ] unsigned char 
 Return value:  Size  Location     Type
                  3   12[BANK0 ] float 
 Registers used:
		wreg, status,2, status,0, pclath, cstack
 Tracked objects:
		On entry : 
		On exit  : 
		Unchanged: 
 Data sizes:     COMMON   BANK0   BANK1   BANK3   BANK2
      Params:         0       6       0       0       0
      Locals:         0       6       0       0       0
      Temps:          0       4       0       0       0
      Totals:         0      16       0       0       0
Total ram usage:       16 bytes
 Hardware stack levels used:    1
 Hardware stack levels required when called:    2
 This function calls:
		___ftpack
 This function is called by:
		_play_tone
 This function uses a non-reentrant model


 *************** function ___ftdiv *****************
 Defined at:
		line 49 in file "/Applications/microchip/xc8/v1.30/sources/pic/ftdiv.c"
 Parameters:    Size  Location     Type
  f2              3   28[BANK0 ] float 
  f1              3   31[BANK0 ] float 
 Auto vars:     Size  Location     Type
  f3              3   39[BANK0 ] float 
  sign            1   43[BANK0 ] unsigned char 
  exp             1   42[BANK0 ] unsigned char 
  cntr            1   38[BANK0 ] unsigned char 
 Return value:  Size  Location     Type
                  3   28[BANK0 ] float 
 Registers used:
		wreg, status,2, status,0, pclath, cstack
 Tracked objects:
		On entry : 
		On exit  : 
		Unchanged: 
 Data sizes:     COMMON   BANK0   BANK1   BANK3   BANK2
      Params:         0       6       0       0       0
      Locals:         0       6       0       0       0
      Temps:          0       4       0       0       0
      Totals:         0      16       0       0       0
Total ram usage:       16 bytes
 Hardware stack levels used:    1
 Hardware stack levels required when called:    2
 This function calls:
		___ftpack
 This function is called by:
		_play_tone
 This function uses a non-reentrant model


 *************** function ___ftadd *****************
 Defined at:
		line 86 in file "/Applications/microchip/xc8/v1.30/sources/common/ftadd.c"
 Parameters:    Size  Location     Type
  f1              3   44[BANK0 ] float 
  f2              3   47[BANK0 ] float 
 Auto vars:     Size  Location     Type
  exp1            1   56[BANK0 ] unsigned char 
  exp2            1   55[BANK0 ] unsigned char 
  sign            1   54[BANK0 ] unsigned char 
 Return value:  Size  Location     Type
                  3   44[BANK0 ] float 
 Registers used:
		wreg, status,2, status,0, pclath, cstack
 Tracked objects:
		On entry : 
		On exit  : 
		Unchanged: 
 Data sizes:     COMMON   BANK0   BANK1   BANK3   BANK2
      Params:         0       6       0       0       0
      Locals:         0       3       0       0       0
      Temps:          0       4       0       0       0
      Totals:         0      13       0       0       0
Total ram usage:       13 bytes
 Hardware stack levels used:    1
 Hardware stack levels required when called:    2
 This function calls:
		___ftpack
 This function is called by:
		_play_tone
 This function uses a non-reentrant model


 *************** function ___awtoft *****************
 Defined at:
		line 32 in file "/Applications/microchip/xc8/v1.30/sources/common/awtoft.c"
 Parameters:    Size  Location     Type
  c               2    8[BANK0 ] int 
 Auto vars:     Size  Location     Type
  sign            1   11[BANK0 ] unsigned char 
 Return value:  Size  Location     Type
                  3    8[BANK0 ] float 
 Registers used:
		wreg, status,2, status,0, pclath, cstack
 Tracked objects:
		On entry : 
		On exit  : 
		Unchanged: 
 Data sizes:     COMMON   BANK0   BANK1   BANK3   BANK2
      Params:         0       3       0       0       0
      Locals:         0       1       0       0       0
      Temps:          2       0       0       0       0
      Totals:         2       4       0       0       0
Total ram usage:        6 bytes
 Hardware stack levels used:    1
 Hardware stack levels required when called:    2
 This function calls:
		___ftpack
 This function is called by:
		_play_tone
 This function uses a non-reentrant model


 *************** function ___ftpack *****************
 Defined at:
		line 62 in file "/Applications/microchip/xc8/v1.30/sources/common/float.c"
 Parameters:    Size  Location     Type
  arg             3    0[BANK0 ] unsigned um
  exp             1    3[BANK0 ] unsigned char 
  sign            1    4[BANK0 ] unsigned char 
 Auto vars:     Size  Location     Type
		None
 Return value:  Size  Location     Type
                  3    0[BANK0 ] float 
 Registers used:
		wreg, status,2, status,0
 Tracked objects:
		On entry : 
		On exit  : 
		Unchanged: 
 Data sizes:     COMMON   BANK0   BANK1   BANK3   BANK2
      Params:         0       5       0       0       0
      Locals:         0       0       0       0       0
      Temps:          0       3       0       0       0
      Totals:         0       8       0       0       0
Total ram usage:        8 bytes
 Hardware stack levels used:    1
 Hardware stack levels required when called:    1
 This function calls:
		Nothing
 This function is called by:
		___awtoft
		___ftadd
		___ftdiv
		___ftmul
 This function uses a non-reentrant model


 *************** function _config_board *****************
 Defined at:
		line 3 in file "Config.c"
 Parameters:    Size  Location     Type
		None
 Auto vars:     Size  Location     Type
		None
 Return value:  Size  Location     Type
		None               void
 Registers used:
		wreg, status,2
 Tracked objects:
		On entry : 
		On exit  : 
		Unchanged: 
 Data sizes:     COMMON   BANK0   BANK1   BANK3   BANK2
      Params:         0       0       0       0       0
      Locals:         0       0       0       0       0
      Temps:          0       0       0       0       0
      Totals:         0       0       0       0       0
Total ram usage:        0 bytes
 Hardware stack levels used:    1
 Hardware stack levels required when called:    1
 This function calls:
		Nothing
 This function is called by:
		_main
 This function uses a non-reentrant model


 *************** function _isr *****************
 Defined at:
		line 81 in file "main.c"
 Parameters:    Size  Location     Type
		None
 Auto vars:     Size  Location     Type
		None
 Return value:  Size  Location     Type
		None               void
 Registers used:
		wreg, status,2, status,0
 Tracked objects:
		On entry : 
		On exit  : 
		Unchanged: 
 Data sizes:     COMMON   BANK0   BANK1   BANK3   BANK2
      Params:         0       0       0       0       0
      Locals:         0       0       0       0       0
      Temps:          4       0       0       0       0
      Totals:         4       0       0       0       0
Total ram usage:        4 bytes
 Hardware stack levels used:    1
 This function calls:
		Nothing
 This function is called by:
		Interrupt level 1
 This function uses a non-reentrant model



MODULE INFORMATION

Module		Function		Class		Link	Load	Size
/Applications/microchip/xc8/v1.30/sources/common/awtoft.c
		___awtoft      		CODE           	0723	0000	37

/Applications/microchip/xc8/v1.30/sources/common/awtoft.c estimated size: 37

/Applications/microchip/xc8/v1.30/sources/common/ftadd.c
		___ftadd       		CODE           	029E	0000	265

/Applications/microchip/xc8/v1.30/sources/common/ftadd.c estimated size: 265

shared
		__initializatio		CODE           	0015	0000	45

shared estimated size: 45

/Applications/microchip/xc8/v1.30/sources/common/float.c
		___ftpack      		CODE           	0662	0000	106

/Applications/microchip/xc8/v1.30/sources/common/float.c estimated size: 106

main.c
		_unset_pwm     		CODE           	07B0	0000	13
		_main          		CODE           	0532	0000	162
		_isr           		CODE           	0766	0000	29
		_set_timer2    		CODE           	0748	0000	30
		_play_tone     		CODE           	0046	0000	600

main.c estimated size: 834

/Applications/microchip/xc8/v1.30/sources/pic/ftdiv.c
		___ftdiv       		CODE           	047A	0000	184

/Applications/microchip/xc8/v1.30/sources/pic/ftdiv.c estimated size: 184

Config.c
		_config_board  		CODE           	0783	0000	28

Config.c estimated size: 28

/Applications/microchip/xc8/v1.30/sources/common/ftmul.c
		___ftmul       		CODE           	03A7	0000	211

/Applications/microchip/xc8/v1.30/sources/common/ftmul.c estimated size: 211

/Applications/microchip/xc8/v1.30/sources/common/fttol.c
		___fttol       		CODE           	05D4	0000	142

/Applications/microchip/xc8/v1.30/sources/common/fttol.c estimated size: 142

